{
  "_format": "hh-sol-artifact-1",
  "contractName": "Mixer",
  "sourceName": "contracts/Mixer.sol",
  "abi": [
    {
      "anonymous": false,
      "inputs": [
        {
          "indexed": false,
          "internalType": "uint8",
          "name": "version",
          "type": "uint8"
        }
      ],
      "name": "Initialized",
      "type": "event"
    },
    {
      "anonymous": false,
      "inputs": [
        {
          "indexed": false,
          "internalType": "address",
          "name": "",
          "type": "address"
        }
      ],
      "name": "NewInnerContractCreated",
      "type": "event"
    },
    {
      "anonymous": false,
      "inputs": [
        {
          "indexed": true,
          "internalType": "address",
          "name": "previousOwner",
          "type": "address"
        },
        {
          "indexed": true,
          "internalType": "address",
          "name": "newOwner",
          "type": "address"
        }
      ],
      "name": "OwnershipTransferred",
      "type": "event"
    },
    {
      "inputs": [
        {
          "internalType": "address",
          "name": "",
          "type": "address"
        }
      ],
      "name": "addressDeposits",
      "outputs": [
        {
          "internalType": "uint8",
          "name": "",
          "type": "uint8"
        }
      ],
      "stateMutability": "view",
      "type": "function"
    },
    {
      "inputs": [
        {
          "internalType": "address",
          "name": "_erc20Addr",
          "type": "address"
        },
        {
          "internalType": "uint256",
          "name": "_numberOfTokens",
          "type": "uint256"
        },
        {
          "internalType": "address",
          "name": "_to",
          "type": "address"
        }
      ],
      "name": "depositTokens",
      "outputs": [],
      "stateMutability": "payable",
      "type": "function"
    },
    {
      "inputs": [],
      "name": "getCurrentContract",
      "outputs": [
        {
          "internalType": "address",
          "name": "",
          "type": "address"
        }
      ],
      "stateMutability": "view",
      "type": "function"
    },
    {
      "inputs": [],
      "name": "initialize",
      "outputs": [],
      "stateMutability": "nonpayable",
      "type": "function"
    },
    {
      "inputs": [],
      "name": "owner",
      "outputs": [
        {
          "internalType": "address",
          "name": "",
          "type": "address"
        }
      ],
      "stateMutability": "view",
      "type": "function"
    },
    {
      "inputs": [],
      "name": "renounceOwnership",
      "outputs": [],
      "stateMutability": "nonpayable",
      "type": "function"
    },
    {
      "inputs": [
        {
          "internalType": "address",
          "name": "newOwner",
          "type": "address"
        }
      ],
      "name": "transferOwnership",
      "outputs": [],
      "stateMutability": "nonpayable",
      "type": "function"
    },
    {
      "inputs": [
        {
          "internalType": "address",
          "name": "_contractAddress",
          "type": "address"
        },
        {
          "internalType": "address",
          "name": "_erc20Addr",
          "type": "address"
        },
        {
          "internalType": "uint256",
          "name": "_numberOfTokens",
          "type": "uint256"
        },
        {
          "internalType": "address",
          "name": "_from",
          "type": "address"
        }
      ],
      "name": "withdraw",
      "outputs": [],
      "stateMutability": "nonpayable",
      "type": "function"
    },
    {
      "stateMutability": "payable",
      "type": "receive"
    }
  ],
  "bytecode": "0x608060405234801561001057600080fd5b5061204a806100206000396000f3fe6080604052600436106200008b5760003560e01c80638da5cb5b11620000555780638da5cb5b146200011d578063ec634f77146200014d578063f072476e146200017d578063f2fde38b14620001c15762000096565b80630e917f76146200009b578063298e4f7914620000c9578063715018a614620000e95780638129fc1c14620001035762000096565b366200009657600080fd5b600080fd5b348015620000a857600080fd5b50620000c76004803603810190620000c1919062000cd4565b620001ef565b005b620000e76004803603810190620000e1919062000d46565b62000273565b005b348015620000f657600080fd5b5062000101620006b4565b005b3480156200011057600080fd5b506200011b620006cc565b005b3480156200012a57600080fd5b506200013562000823565b60405162000144919062000eec565b60405180910390f35b3480156200015a57600080fd5b50620001656200084d565b60405162000174919062000eec565b60405180910390f35b3480156200018a57600080fd5b50620001a96004803603810190620001a3919062000ca2565b62000877565b604051620001b8919062001077565b60405180910390f35b348015620001ce57600080fd5b50620001ed6004803603810190620001e7919062000ca2565b62000897565b005b8373ffffffffffffffffffffffffffffffffffffffff16630e917f768285856200021862000922565b6040518563ffffffff1660e01b815260040162000239949392919062000f63565b600060405180830381600087803b1580156200025457600080fd5b505af115801562000269573d6000803e3d6000fd5b5050505050505050565b662386f26fc10000341015620002c0576040517f08c379a0000000000000000000000000000000000000000000000000000000008152600401620002b79062000fef565b60405180910390fd5b601e60656000606660009054906101000a900473ffffffffffffffffffffffffffffffffffffffff1673ffffffffffffffffffffffffffffffffffffffff1673ffffffffffffffffffffffffffffffffffffffff16815260200190815260200160002060009054906101000a900460ff1660ff1614156200034757620003456200092a565b505b600073ffffffffffffffffffffffffffffffffffffffff168373ffffffffffffffffffffffffffffffffffffffff161415620004b557606660009054906101000a900473ffffffffffffffffffffffffffffffffffffffff1673ffffffffffffffffffffffffffffffffffffffff166108fc662386f26fc1000034620003ce9190620010e3565b9081150290604051600060405180830381858888f19350505050158015620003fa573d6000803e3d6000fd5b50606660009054906101000a900473ffffffffffffffffffffffffffffffffffffffff1673ffffffffffffffffffffffffffffffffffffffff1663b1d1ec196200044362000922565b85662386f26fc1000034620004599190620010e3565b856040518563ffffffff1660e01b81526004016200047b949392919062000f63565b600060405180830381600087803b1580156200049657600080fd5b505af1158015620004ab573d6000803e3d6000fd5b5050505062000617565b8273ffffffffffffffffffffffffffffffffffffffff166323b872dd620004db62000922565b606660009054906101000a900473ffffffffffffffffffffffffffffffffffffffff16856040518463ffffffff1660e01b81526004016200051f9392919062000f26565b602060405180830381600087803b1580156200053a57600080fd5b505af11580156200054f573d6000803e3d6000fd5b505050506040513d601f19601f8201168201806040525081019062000575919062000da2565b50606660009054906101000a900473ffffffffffffffffffffffffffffffffffffffff1673ffffffffffffffffffffffffffffffffffffffff1663b1d1ec19620005be62000922565b8585856040518563ffffffff1660e01b8152600401620005e2949392919062000f63565b600060405180830381600087803b158015620005fd57600080fd5b505af115801562000612573d6000803e3d6000fd5b505050505b600160656000606660009054906101000a900473ffffffffffffffffffffffffffffffffffffffff1673ffffffffffffffffffffffffffffffffffffffff1673ffffffffffffffffffffffffffffffffffffffff16815260200190815260200160002060008282829054906101000a900460ff16620006979190620010a5565b92506101000a81548160ff021916908360ff160217905550505050565b620006be62000a1b565b620006ca600062000aa0565b565b60008060019054906101000a900460ff16159050808015620006fe5750600160008054906101000a900460ff1660ff16105b806200072f5750620007103062000b66565b1580156200072e5750600160008054906101000a900460ff1660ff16145b5b62000771576040517f08c379a0000000000000000000000000000000000000000000000000000000008152600401620007689062001011565b60405180910390fd5b60016000806101000a81548160ff021916908360ff1602179055508015620007af576001600060016101000a81548160ff0219169083151502179055505b620007b962000b89565b620007c36200092a565b508015620008205760008060016101000a81548160ff0219169083151502179055507f7f26b83ff96e1f2b6a682f133852f6798a09c465da95921460cefb3847402498600160405162000817919062000fb0565b60405180910390a15b50565b6000603360009054906101000a900473ffffffffffffffffffffffffffffffffffffffff16905090565b6000606660009054906101000a900473ffffffffffffffffffffffffffffffffffffffff16905090565b60656020528060005260406000206000915054906101000a900460ff1681565b620008a162000a1b565b600073ffffffffffffffffffffffffffffffffffffffff168173ffffffffffffffffffffffffffffffffffffffff16141562000914576040517f08c379a00000000000000000000000000000000000000000000000000000000081526004016200090b9062000fcd565b60405180910390fd5b6200091f8162000aa0565b50565b600033905090565b60006040516200093a9062000c4f565b604051809103906000f08015801562000957573d6000803e3d6000fd5b50606660006101000a81548173ffffffffffffffffffffffffffffffffffffffff021916908373ffffffffffffffffffffffffffffffffffffffff1602179055507fff930b9a7b49209e6e4aaca7250915fa46f36a097caed9bc228fb268db60f770606660009054906101000a900473ffffffffffffffffffffffffffffffffffffffff16604051620009eb919062000f09565b60405180910390a1606660009054906101000a900473ffffffffffffffffffffffffffffffffffffffff16905090565b62000a2562000922565b73ffffffffffffffffffffffffffffffffffffffff1662000a4562000823565b73ffffffffffffffffffffffffffffffffffffffff161462000a9e576040517f08c379a000000000000000000000000000000000000000000000000000000000815260040162000a959062001033565b60405180910390fd5b565b6000603360009054906101000a900473ffffffffffffffffffffffffffffffffffffffff16905081603360006101000a81548173ffffffffffffffffffffffffffffffffffffffff021916908373ffffffffffffffffffffffffffffffffffffffff1602179055508173ffffffffffffffffffffffffffffffffffffffff168173ffffffffffffffffffffffffffffffffffffffff167f8be0079c531659141344cd1fd0a4f28419497f9722a3daafe3b4186f6b6457e060405160405180910390a35050565b6000808273ffffffffffffffffffffffffffffffffffffffff163b119050919050565b600060019054906101000a900460ff1662000bdb576040517f08c379a000000000000000000000000000000000000000000000000000000000815260040162000bd29062001055565b60405180910390fd5b62000be562000be7565b565b600060019054906101000a900460ff1662000c39576040517f08c379a000000000000000000000000000000000000000000000000000000000815260040162000c309062001055565b60405180910390fd5b62000c4d62000c4762000922565b62000aa0565b565b610c8e806200138783390190565b60008135905062000c6e8162001338565b92915050565b60008151905062000c858162001352565b92915050565b60008135905062000c9c816200136c565b92915050565b60006020828403121562000cbb5762000cba620011f4565b5b600062000ccb8482850162000c5d565b91505092915050565b6000806000806080858703121562000cf15762000cf0620011f4565b5b600062000d018782880162000c5d565b945050602062000d148782880162000c5d565b935050604062000d278782880162000c8b565b925050606062000d3a8782880162000c5d565b91505092959194509250565b60008060006060848603121562000d625762000d61620011f4565b5b600062000d728682870162000c5d565b935050602062000d858682870162000c8b565b925050604062000d988682870162000c5d565b9150509250925092565b60006020828403121562000dbb5762000dba620011f4565b5b600062000dcb8482850162000c74565b91505092915050565b62000ddf8162001175565b82525050565b62000df0816200111e565b82525050565b62000e018162001189565b82525050565b600062000e1660268362001094565b915062000e2382620011f9565b604082019050919050565b600062000e3d60208362001094565b915062000e4a8262001248565b602082019050919050565b600062000e64602e8362001094565b915062000e718262001271565b604082019050919050565b600062000e8b60208362001094565b915062000e9882620012c0565b602082019050919050565b600062000eb2602b8362001094565b915062000ebf82620012e9565b604082019050919050565b62000ed5816200115e565b82525050565b62000ee68162001168565b82525050565b600060208201905062000f03600083018462000de5565b92915050565b600060208201905062000f20600083018462000dd4565b92915050565b600060608201905062000f3d600083018662000de5565b62000f4c602083018562000dd4565b62000f5b604083018462000eca565b949350505050565b600060808201905062000f7a600083018762000de5565b62000f89602083018662000de5565b62000f98604083018562000eca565b62000fa7606083018462000de5565b95945050505050565b600060208201905062000fc7600083018462000df6565b92915050565b6000602082019050818103600083015262000fe88162000e07565b9050919050565b600060208201905081810360008301526200100a8162000e2e565b9050919050565b600060208201905081810360008301526200102c8162000e55565b9050919050565b600060208201905081810360008301526200104e8162000e7c565b9050919050565b60006020820190508181036000830152620010708162000ea3565b9050919050565b60006020820190506200108e600083018462000edb565b92915050565b600082825260208201905092915050565b6000620010b28262001168565b9150620010bf8362001168565b92508260ff03821115620010d857620010d7620011c5565b5b828201905092915050565b6000620010f0826200115e565b9150620010fd836200115e565b925082821015620011135762001112620011c5565b5b828203905092915050565b60006200112b826200113e565b9050919050565b60008115159050919050565b600073ffffffffffffffffffffffffffffffffffffffff82169050919050565b6000819050919050565b600060ff82169050919050565b600062001182826200119d565b9050919050565b6000620011968262001168565b9050919050565b6000620011aa82620011b1565b9050919050565b6000620011be826200113e565b9050919050565b7f4e487b7100000000000000000000000000000000000000000000000000000000600052601160045260246000fd5b600080fd5b7f4f776e61626c653a206e6577206f776e657220697320746865207a65726f206160008201527f6464726573730000000000000000000000000000000000000000000000000000602082015250565b7f4d697865723a2046656520746f20636f6e7472616374206e6f742073656e7421600082015250565b7f496e697469616c697a61626c653a20636f6e747261637420697320616c72656160008201527f647920696e697469616c697a6564000000000000000000000000000000000000602082015250565b7f4f776e61626c653a2063616c6c6572206973206e6f7420746865206f776e6572600082015250565b7f496e697469616c697a61626c653a20636f6e7472616374206973206e6f74206960008201527f6e697469616c697a696e67000000000000000000000000000000000000000000602082015250565b62001343816200111e565b81146200134f57600080fd5b50565b6200135d8162001132565b81146200136957600080fd5b50565b62001377816200115e565b81146200138357600080fd5b5056fe608060405234801561001057600080fd5b5061002d61002261003260201b60201c565b61003a60201b60201c565b6100fe565b600033905090565b60008060009054906101000a900473ffffffffffffffffffffffffffffffffffffffff169050816000806101000a81548173ffffffffffffffffffffffffffffffffffffffff021916908373ffffffffffffffffffffffffffffffffffffffff1602179055508173ffffffffffffffffffffffffffffffffffffffff168173ffffffffffffffffffffffffffffffffffffffff167f8be0079c531659141344cd1fd0a4f28419497f9722a3daafe3b4186f6b6457e060405160405180910390a35050565b610b818061010d6000396000f3fe6080604052600436106100745760003560e01c8063b1d1ec191161004e578063b1d1ec19146100eb578063c23f001f14610114578063cb79935814610151578063f2fde38b1461018e5761007b565b80630e917f7614610080578063715018a6146100a95780638da5cb5b146100c05761007b565b3661007b57005b600080fd5b34801561008c57600080fd5b506100a760048036038101906100a29190610899565b6101b7565b005b3480156100b557600080fd5b506100be610431565b005b3480156100cc57600080fd5b506100d5610445565b6040516100e29190610991565b60405180910390f35b3480156100f757600080fd5b50610112600480360381019061010d9190610899565b61046e565b005b34801561012057600080fd5b5061013b60048036038101906101369190610859565b6105b8565b6040516101489190610a15565b60405180910390f35b34801561015d57600080fd5b5061017860048036038101906101739190610859565b6105dd565b6040516101859190610991565b60405180910390f35b34801561019a57600080fd5b506101b560048036038101906101b0919061082c565b61061f565b005b6101bf6106a3565b81600160008673ffffffffffffffffffffffffffffffffffffffff1673ffffffffffffffffffffffffffffffffffffffff16815260200190815260200160002060008573ffffffffffffffffffffffffffffffffffffffff1673ffffffffffffffffffffffffffffffffffffffff168152602001908152602001600020541461024757600080fd5b8073ffffffffffffffffffffffffffffffffffffffff16600260008673ffffffffffffffffffffffffffffffffffffffff1673ffffffffffffffffffffffffffffffffffffffff16815260200190815260200160002060008573ffffffffffffffffffffffffffffffffffffffff1673ffffffffffffffffffffffffffffffffffffffff16815260200190815260200160002060009054906101000a900473ffffffffffffffffffffffffffffffffffffffff1673ffffffffffffffffffffffffffffffffffffffff161461031b57600080fd5b600073ffffffffffffffffffffffffffffffffffffffff168373ffffffffffffffffffffffffffffffffffffffff16141561039c578073ffffffffffffffffffffffffffffffffffffffff166108fc839081150290604051600060405180830381858888f19350505050158015610396573d6000803e3d6000fd5b5061042b565b8273ffffffffffffffffffffffffffffffffffffffff1663a9059cbb82846040518363ffffffff1660e01b81526004016103d79291906109ac565b602060405180830381600087803b1580156103f157600080fd5b505af1158015610405573d6000803e3d6000fd5b505050506040513d601f19601f820116820180604052508101906104299190610900565b505b50505050565b6104396106a3565b6104436000610721565b565b60008060009054906101000a900473ffffffffffffffffffffffffffffffffffffffff16905090565b6104766106a3565b81600160008673ffffffffffffffffffffffffffffffffffffffff1673ffffffffffffffffffffffffffffffffffffffff16815260200190815260200160002060008573ffffffffffffffffffffffffffffffffffffffff1673ffffffffffffffffffffffffffffffffffffffff1681526020019081526020016000208190555080600260008673ffffffffffffffffffffffffffffffffffffffff1673ffffffffffffffffffffffffffffffffffffffff16815260200190815260200160002060008573ffffffffffffffffffffffffffffffffffffffff1673ffffffffffffffffffffffffffffffffffffffff16815260200190815260200160002060006101000a81548173ffffffffffffffffffffffffffffffffffffffff021916908373ffffffffffffffffffffffffffffffffffffffff16021790555050505050565b6001602052816000526040600020602052806000526040600020600091509150505481565b60026020528160005260406000206020528060005260406000206000915091509054906101000a900473ffffffffffffffffffffffffffffffffffffffff1681565b6106276106a3565b600073ffffffffffffffffffffffffffffffffffffffff168173ffffffffffffffffffffffffffffffffffffffff161415610697576040517f08c379a000000000000000000000000000000000000000000000000000000000815260040161068e906109d5565b60405180910390fd5b6106a081610721565b50565b6106ab6107e5565b73ffffffffffffffffffffffffffffffffffffffff166106c9610445565b73ffffffffffffffffffffffffffffffffffffffff161461071f576040517f08c379a0000000000000000000000000000000000000000000000000000000008152600401610716906109f5565b60405180910390fd5b565b60008060009054906101000a900473ffffffffffffffffffffffffffffffffffffffff169050816000806101000a81548173ffffffffffffffffffffffffffffffffffffffff021916908373ffffffffffffffffffffffffffffffffffffffff1602179055508173ffffffffffffffffffffffffffffffffffffffff168173ffffffffffffffffffffffffffffffffffffffff167f8be0079c531659141344cd1fd0a4f28419497f9722a3daafe3b4186f6b6457e060405160405180910390a35050565b600033905090565b6000813590506107fc81610b06565b92915050565b60008151905061081181610b1d565b92915050565b60008135905061082681610b34565b92915050565b60006020828403121561084257610841610a89565b5b6000610850848285016107ed565b91505092915050565b600080604083850312156108705761086f610a89565b5b600061087e858286016107ed565b925050602061088f858286016107ed565b9150509250929050565b600080600080608085870312156108b3576108b2610a89565b5b60006108c1878288016107ed565b94505060206108d2878288016107ed565b93505060406108e387828801610817565b92505060606108f4878288016107ed565b91505092959194509250565b60006020828403121561091657610915610a89565b5b600061092484828501610802565b91505092915050565b61093681610a41565b82525050565b6000610949602683610a30565b915061095482610a8e565b604082019050919050565b600061096c602083610a30565b915061097782610add565b602082019050919050565b61098b81610a7f565b82525050565b60006020820190506109a6600083018461092d565b92915050565b60006040820190506109c1600083018561092d565b6109ce6020830184610982565b9392505050565b600060208201905081810360008301526109ee8161093c565b9050919050565b60006020820190508181036000830152610a0e8161095f565b9050919050565b6000602082019050610a2a6000830184610982565b92915050565b600082825260208201905092915050565b6000610a4c82610a5f565b9050919050565b60008115159050919050565b600073ffffffffffffffffffffffffffffffffffffffff82169050919050565b6000819050919050565b600080fd5b7f4f776e61626c653a206e6577206f776e657220697320746865207a65726f206160008201527f6464726573730000000000000000000000000000000000000000000000000000602082015250565b7f4f776e61626c653a2063616c6c6572206973206e6f7420746865206f776e6572600082015250565b610b0f81610a41565b8114610b1a57600080fd5b50565b610b2681610a53565b8114610b3157600080fd5b50565b610b3d81610a7f565b8114610b4857600080fd5b5056fea26469706673582212209808e79eb88d7832f274a4c8851b722e708a8057af71b3890970f530cfa717d364736f6c63430008070033a2646970667358221220ac766e78994fa6d18fb13743082ed615213b8e159e1f0406a11ba9dd9adc0b1664736f6c63430008070033",
  "linkReferences": {},
  "deployedLinkReferences": {}
}